{"abi":[{"type":"constructor","inputs":[],"stateMutability":"nonpayable"},{"type":"function","name":"billRestaurant","inputs":[{"name":"","type":"uint256","internalType":"uint256"}],"outputs":[{"name":"","type":"address","internalType":"address"}],"stateMutability":"view"},{"type":"function","name":"bills","inputs":[{"name":"","type":"uint256","internalType":"uint256"},{"name":"","type":"uint256","internalType":"uint256"}],"outputs":[{"name":"name","type":"string","internalType":"string"},{"name":"cost","type":"uint256","internalType":"uint256"},{"name":"owner","type":"address","internalType":"address"}],"stateMutability":"view"},{"type":"function","name":"createBill","inputs":[{"name":"menus","type":"tuple[]","internalType":"struct Splitly.Menu[]","components":[{"name":"name","type":"string","internalType":"string"},{"name":"cost","type":"uint256","internalType":"uint256"},{"name":"owner","type":"address","internalType":"address"}]}],"outputs":[{"name":"","type":"uint256","internalType":"uint256"}],"stateMutability":"nonpayable"},{"type":"function","name":"currentBillId","inputs":[],"outputs":[{"name":"","type":"uint256","internalType":"uint256"}],"stateMutability":"view"},{"type":"function","name":"getBillCost","inputs":[{"name":"billId","type":"uint256","internalType":"uint256"}],"outputs":[{"name":"totalCost","type":"uint256","internalType":"uint256"}],"stateMutability":"view"},{"type":"function","name":"getBillDetail","inputs":[{"name":"billId","type":"uint256","internalType":"uint256"}],"outputs":[{"name":"","type":"tuple[]","internalType":"struct Splitly.Menu[]","components":[{"name":"name","type":"string","internalType":"string"},{"name":"cost","type":"uint256","internalType":"uint256"},{"name":"owner","type":"address","internalType":"address"}]}],"stateMutability":"view"},{"type":"function","name":"pay","inputs":[{"name":"billId","type":"uint256","internalType":"uint256"},{"name":"token","type":"address","internalType":"address"}],"outputs":[],"stateMutability":"nonpayable"},{"type":"function","name":"selectMenu","inputs":[{"name":"billId","type":"uint256","internalType":"uint256"},{"name":"menuIndex","type":"uint256[]","internalType":"uint256[]"}],"outputs":[],"stateMutability":"nonpayable"},{"type":"event","name":"BillCreated","inputs":[{"name":"billId","type":"uint256","indexed":false,"internalType":"uint256"},{"name":"menuCount","type":"uint256","indexed":false,"internalType":"uint256"},{"name":"restaurant","type":"address","indexed":false,"internalType":"address"}],"anonymous":false},{"type":"event","name":"BillPaid","inputs":[{"name":"billId","type":"uint256","indexed":false,"internalType":"uint256"},{"name":"restaurant","type":"address","indexed":false,"internalType":"address"},{"name":"token","type":"address","indexed":false,"internalType":"address"}],"anonymous":false},{"type":"event","name":"MenuAdded","inputs":[{"name":"billId","type":"uint256","indexed":false,"internalType":"uint256"},{"name":"menu","type":"tuple","indexed":false,"internalType":"struct Splitly.Menu","components":[{"name":"name","type":"string","internalType":"string"},{"name":"cost","type":"uint256","internalType":"uint256"},{"name":"owner","type":"address","internalType":"address"}]}],"anonymous":false},{"type":"error","name":"MenuNotSelected","inputs":[{"name":"billId","type":"uint256","internalType":"uint256"},{"name":"menuIndex","type":"uint256","internalType":"uint256"}]}],"bytecode":{"object":"0x608060405234801561001057600080fd5b50610eb2806100206000396000f3fe608060405234801561001057600080fd5b50600436106100885760003560e01c8063617372de1161005b578063617372de146100ff578063a4964e7114610108578063e06e34c714610149578063f09621511461015c57600080fd5b80631ae67a701461008d5780632f0a1b15146100b657806331cbf5e3146100cb5780633453bf95146100de575b600080fd5b6100a061009b36600461086a565b61017e565b6040516100ad9190610906565b60405180910390f35b6100c96100c43660046109fc565b6102a5565b005b6100c96100d9366004610aba565b61033c565b6100f16100ec36600461086a565b61059b565b6040519081526020016100ad565b6100f160005481565b61013161011636600461086a565b6002602052600090815260409020546001600160a01b031681565b6040516001600160a01b0390911681526020016100ad565b6100f1610157366004610ae6565b6105fe565b61016f61016a366004610c37565b610791565b6040516100ad93929190610c59565b606060016000838152602001908152602001600020805480602002602001604051908101604052809291908181526020016000905b8282101561029a57838290600052602060002090600302016040518060600160405290816000820180546101e690610c8c565b80601f016020809104026020016040519081016040528092919081815260200182805461021290610c8c565b801561025f5780601f106102345761010080835404028352916020019161025f565b820191906000526020600020905b81548152906001019060200180831161024257829003601f168201915b50505091835250506001828101546020808401919091526002909301546001600160a01b0316604090920191909152918352920191016101b3565b505050509050919050565b60005b81518110156103375733600160008581526020019081526020016000208383815181106102d7576102d7610cc6565b6020026020010151815481106102ef576102ef610cc6565b906000526020600020906003020160020160006101000a8154816001600160a01b0302191690836001600160a01b03160217905550808061032f90610cf2565b9150506102a8565b505050565b60006103478361017e565b905060005b815181101561048c5760006001600160a01b031682828151811061037257610372610cc6565b6020026020010151604001516001600160a01b0316036103b357604051634d94daff60e01b8152600481018590526024810182905260440160405180910390fd5b826001600160a01b03166323b872dd8383815181106103d4576103d4610cc6565b602002602001015160400151308585815181106103f3576103f3610cc6565b60209081029190910181015101516040516001600160e01b031960e086901b1681526001600160a01b03938416600482015292909116602483015260448201526064016020604051808303816000875af1158015610455573d6000803e3d6000fd5b505050506040513d601f19601f820116820180604052508101906104799190610d0b565b508061048481610cf2565b91505061034c565b506000838152600260205260409020546001600160a01b038084169163a9059cbb91166104b88661059b565b6040516001600160e01b031960e085901b1681526001600160a01b03909216600483015260248201526044016020604051808303816000875af1158015610503573d6000803e3d6000fd5b505050506040513d601f19601f820116820180604052508101906105279190610d0b565b50600083815260026020526040908190205490517fa32f88b36d46469b0030e2de2ee1ac8416c96afcec241b18937434dc492ba7769161058e9186916001600160a01b03169086909283526001600160a01b03918216602084015216604082015260600190565b60405180910390a1505050565b6000818152600160205260408120815b81548110156105f7578181815481106105c6576105c6610cc6565b906000526020600020906003020160010154836105e39190610d34565b9250806105ef81610cf2565b9150506105ab565b5050919050565b6000805b825181101561070057600080548152600160205260409020835184908390811061062e5761062e610cc6565b602090810291909101810151825460018101845560009384529190922082516003909202019081906106609082610d9b565b506020820151816001015560408201518160020160006101000a8154816001600160a01b0302191690836001600160a01b0316021790555050507fedab9ab824641b939252e073b98ca32e0d334a42e35e2e1c08664c4ead81f5cb6000548483815181106106d0576106d0610cc6565b60200260200101516040516106e6929190610e5b565b60405180910390a1806106f881610cf2565b915050610602565b506000805481526002602052604080822080546001600160a01b031916339081179091559154845191517fb3128dc42b5d16bbd577fe917fa12d6e68b25e9ee19c25ab41c2f8867bc2e3dd93610770939192835260208301919091526001600160a01b0316604082015260600190565b60405180910390a160008054908061078783610cf2565b9091555092915050565b600160205281600052604060002081815481106107ad57600080fd5b9060005260206000209060030201600091509150508060000180546107d190610c8c565b80601f01602080910402602001604051908101604052809291908181526020018280546107fd90610c8c565b801561084a5780601f1061081f5761010080835404028352916020019161084a565b820191906000526020600020905b81548152906001019060200180831161082d57829003601f168201915b5050505060018301546002909301549192916001600160a01b0316905083565b60006020828403121561087c57600080fd5b5035919050565b6000815180845260005b818110156108a95760208185018101518683018201520161088d565b506000602082860101526020601f19601f83011685010191505092915050565b60008151606084526108de6060850182610883565b602084810151908601526040938401516001600160a01b031693909401929092525090919050565b6000602080830181845280855180835260408601915060408160051b870101925083870160005b8281101561095b57603f198886030184526109498583516108c9565b9450928501929085019060010161092d565b5092979650505050505050565b634e487b7160e01b600052604160045260246000fd5b6040516060810167ffffffffffffffff811182821017156109a1576109a1610968565b60405290565b604051601f8201601f1916810167ffffffffffffffff811182821017156109d0576109d0610968565b604052919050565b600067ffffffffffffffff8211156109f2576109f2610968565b5060051b60200190565b60008060408385031215610a0f57600080fd5b8235915060208084013567ffffffffffffffff811115610a2e57600080fd5b8401601f81018613610a3f57600080fd5b8035610a52610a4d826109d8565b6109a7565b81815260059190911b82018301908381019088831115610a7157600080fd5b928401925b82841015610a8f57833582529284019290840190610a76565b80955050505050509250929050565b80356001600160a01b0381168114610ab557600080fd5b919050565b60008060408385031215610acd57600080fd5b82359150610add60208401610a9e565b90509250929050565b60006020808385031215610af957600080fd5b823567ffffffffffffffff80821115610b1157600080fd5b818501915085601f830112610b2557600080fd5b8135610b33610a4d826109d8565b81815260059190911b83018401908481019088831115610b5257600080fd5b8585015b83811015610c2a57803585811115610b6d57600080fd5b8601601f196060828d0382011215610b855760008081fd5b610b8d61097e565b8983013588811115610b9f5760008081fd5b8301603f81018e13610bb15760008081fd5b8a81013560408a821115610bc757610bc7610968565b610bd78d86601f850116016109a7565b94508185528f81838501011115610bee5760008081fd5b818184018e87013760008d8387010152848452808601358d850152610c1560608701610a9e565b90840152505085525050918601918601610b56565b5098975050505050505050565b60008060408385031215610c4a57600080fd5b50508035926020909101359150565b606081526000610c6c6060830186610883565b6020830194909452506001600160a01b0391909116604090910152919050565b600181811c90821680610ca057607f821691505b602082108103610cc057634e487b7160e01b600052602260045260246000fd5b50919050565b634e487b7160e01b600052603260045260246000fd5b634e487b7160e01b600052601160045260246000fd5b600060018201610d0457610d04610cdc565b5060010190565b600060208284031215610d1d57600080fd5b81518015158114610d2d57600080fd5b9392505050565b80820180821115610d4757610d47610cdc565b92915050565b601f82111561033757600081815260208120601f850160051c81016020861015610d745750805b601f850160051c820191505b81811015610d9357828155600101610d80565b505050505050565b815167ffffffffffffffff811115610db557610db5610968565b610dc981610dc38454610c8c565b84610d4d565b602080601f831160018114610dfe5760008415610de65750858301515b600019600386901b1c1916600185901b178555610d93565b600085815260208120601f198616915b82811015610e2d57888601518255948401946001909101908401610e0e565b5085821015610e4b5787850151600019600388901b60f8161c191681555b5050505050600190811b01905550565b828152604060208201526000610e7460408301846108c9565b94935050505056fea26469706673582212203f5a5a0521232af0c7d71393a991e4e12385a3513ef10a2bfb9fa50f4619cadf64736f6c63430008150033","linkReferences":{}},"methodIdentifiers":{"billRestaurant(uint256)":"a4964e71","bills(uint256,uint256)":"f0962151","createBill((string,uint256,address)[])":"e06e34c7","currentBillId()":"617372de","getBillCost(uint256)":"3453bf95","getBillDetail(uint256)":"1ae67a70","pay(uint256,address)":"31cbf5e3","selectMenu(uint256,uint256[])":"2f0a1b15"},"id":1}